{
  "contractName": "Livemg",
  "abi": [
    {
      "inputs": [
        {
          "internalType": "address",
          "name": "",
          "type": "address"
        },
        {
          "internalType": "uint256",
          "name": "",
          "type": "uint256"
        }
      ],
      "name": "buyers",
      "outputs": [
        {
          "internalType": "bool",
          "name": "",
          "type": "bool"
        }
      ],
      "stateMutability": "view",
      "type": "function",
      "constant": true
    },
    {
      "inputs": [
        {
          "internalType": "uint256",
          "name": "",
          "type": "uint256"
        }
      ],
      "name": "videos",
      "outputs": [
        {
          "internalType": "uint256",
          "name": "videoId",
          "type": "uint256"
        },
        {
          "internalType": "address payable",
          "name": "owner",
          "type": "address"
        },
        {
          "internalType": "uint256",
          "name": "cost",
          "type": "uint256"
        }
      ],
      "stateMutability": "view",
      "type": "function",
      "constant": true
    },
    {
      "inputs": [
        {
          "internalType": "uint256",
          "name": "videoId",
          "type": "uint256"
        },
        {
          "internalType": "uint256",
          "name": "cost",
          "type": "uint256"
        }
      ],
      "name": "addVideoDetail",
      "outputs": [],
      "stateMutability": "nonpayable",
      "type": "function"
    },
    {
      "inputs": [
        {
          "internalType": "uint256",
          "name": "videoId",
          "type": "uint256"
        }
      ],
      "name": "buyVideo",
      "outputs": [],
      "stateMutability": "payable",
      "type": "function",
      "payable": true
    }
  ],
  "bytecode": "0x608060405234801561001057600080fd5b506106d0806100206000396000f3fe60806040526004361061003f5760003560e01c806317ff5771146100445780633a2b10211461006d578063a0e6f5d314610089578063e6821bf5146100c6575b600080fd5b34801561005057600080fd5b5061006b60048036038101906100669190610460565b610105565b005b61008760048036038101906100829190610437565b6101e9565b005b34801561009557600080fd5b506100b060048036038101906100ab91906103fb565b610358565b6040516100bd919061056f565b60405180910390f35b3480156100d257600080fd5b506100ed60048036038101906100e89190610437565b610387565b6040516100fc939291906105ca565b60405180910390f35b8160008084815260200190815260200160002060000154141561015d576040517f08c379a00000000000000000000000000000000000000000000000000000000081526004016101549061058a565b60405180910390fd5b81600080848152602001908152602001600020600001819055503360008084815260200190815260200160002060010160006101000a81548173ffffffffffffffffffffffffffffffffffffffff021916908373ffffffffffffffffffffffffffffffffffffffff16021790555080600080848152602001908152602001600020600201819055505050565b60008082815260200190815260200160002060020154341015610241576040517f08c379a0000000000000000000000000000000000000000000000000000000008152600401610238906105aa565b60405180910390fd5b60008082815260200190815260200160002060010160009054906101000a900473ffffffffffffffffffffffffffffffffffffffff1673ffffffffffffffffffffffffffffffffffffffff166108fc600080848152602001908152602001600020600201549081150290604051600060405180830381858888f193505050501580156102d1573d6000803e3d6000fd5b50600080600083815260200190815260200160002060000154905060018060003373ffffffffffffffffffffffffffffffffffffffff1673ffffffffffffffffffffffffffffffffffffffff168152602001908152602001600020600083815260200190815260200160002060006101000a81548160ff0219169083151502179055505050565b60016020528160005260406000206020528060005260406000206000915091509054906101000a900460ff1681565b60006020528060005260406000206000915090508060000154908060010160009054906101000a900473ffffffffffffffffffffffffffffffffffffffff16908060020154905083565b6000813590506103e08161066c565b92915050565b6000813590506103f581610683565b92915050565b6000806040838503121561040e57600080fd5b600061041c858286016103d1565b925050602061042d858286016103e6565b9150509250929050565b60006020828403121561044957600080fd5b6000610457848285016103e6565b91505092915050565b6000806040838503121561047357600080fd5b6000610481858286016103e6565b9250506020610492858286016103e6565b9150509250929050565b6104a581610624565b82525050565b6104b481610636565b82525050565b60006104c7601383610601565b91507f566964656f20616c7265616479206578697374000000000000000000000000006000830152602082019050919050565b6000610507602d83610601565b91507f496e73756666696369656e74207061796d656e742c20706c656173652073656e60008301527f64206d6f72652045746865722e000000000000000000000000000000000000006020830152604082019050919050565b61056981610662565b82525050565b600060208201905061058460008301846104ab565b92915050565b600060208201905081810360008301526105a3816104ba565b9050919050565b600060208201905081810360008301526105c3816104fa565b9050919050565b60006060820190506105df6000830186610560565b6105ec602083018561049c565b6105f96040830184610560565b949350505050565b600082825260208201905092915050565b600061061d82610642565b9050919050565b600061062f82610642565b9050919050565b60008115159050919050565b600073ffffffffffffffffffffffffffffffffffffffff82169050919050565b6000819050919050565b61067581610612565b811461068057600080fd5b50565b61068c81610662565b811461069757600080fd5b5056fea264697066735822122014cf44bda819df29181d6e37554457c3103f935ea70249340bc91c513912d50964736f6c63430008000033",
  "immutableReferences": {},
  "source": "/* SPDX-License-Identifier: UNLICENSED */\r\npragma solidity ^0.8.0;\r\n\r\ncontract Livemg {\r\n    \r\n    struct Video {\r\n        uint256 videoId;\r\n        address payable owner;\r\n        uint cost;\r\n    }\r\n\r\n    mapping(uint256 => Video) public videos;\r\n    mapping(address => mapping(uint => bool)) public buyers;\r\n\r\n\r\n    function addVideoDetail(uint256 videoId, uint cost) public {\r\n        require(videos[videoId].videoId != videoId, \"Video already exist\");\r\n\r\n        videos[videoId].videoId = videoId;\r\n        videos[videoId].owner = payable(msg.sender);\r\n        videos[videoId].cost = cost;\r\n    }\r\n\r\n    function buyVideo(uint256 videoId) public payable {\r\n    require(msg.value >= videos[videoId].cost, \"Insufficient payment, please send more Ether.\");\r\n\r\n    videos[videoId].owner.transfer(videos[videoId].cost);\r\n    uint256 id = videos[videoId].videoId;\r\n    buyers[msg.sender][id] = true;\r\n    }\r\n}",
  "sourcePath": "C:\\Users\\arham\\Downloads\\fyp reorder\\smart-contract\\contracts\\Livemg.sol",
  "compiler": {
    "name": "solc",
    "version": "0.8.0+commit.c7dfd78e.Emscripten.clang"
  },
  "schemaVersion": "3.4.13",
  "updatedAt": "2023-04-25T10:15:38.057Z",
  "networkType": "ethereum",
  "devdoc": {
    "kind": "dev",
    "methods": {},
    "version": 1
  },
  "userdoc": {
    "kind": "user",
    "methods": {},
    "version": 1
  }
}